:020000040001F9
:10800000002C0020F58001000F810100118101008A
:108010000000000000000000000000000000000060
:1080200000000000000000000000000013810100BB
:108030000000000000000000158101001781010010
:108040001981010019810100858701001981010052
:10805000198101000000000019810100198101004F
:1080600019810100198101001981010019810100A4
:108070001981010019810100198101001981010094
:108080001981010081860100198101001981010017
:10809000A1860100F58601000D870100198101000C
:1080A000198101001981010000000000000000009A
:1080B00000000000000000000000000000000000C0
:1080C0000348854600F0A8FA0048004731920100B5
:1080D000002C0020401E00BF00BF00BF00BF00BF3B
:1080E00000BF00BF00BF00BF00BF00BF00BFF1D195
:1080F000704700000321094802680A4302600848EB
:1081000002680A4302600748804707480047FEE7C5
:10811000FEE7FEE7FEE7FEE7FEE70000240500407D
:108120005405004031870100C180010003460B4324
:108130009B0703D009E008C9121F08C0042AFAD21D
:1081400003E00B780370401C491C521EF9D27047A3
:10815000D2B201E00270401C491EFBD270470022DF
:10816000F6E710B513460A4604461946FFF7F0FF36
:10817000204610BDF0B507460846584087B0C00FEE
:10818000049048000E46590040084908BC1A88412E
:1081900005D2384631461E4617460B460246580061
:1081A000400810434CD0300D039040055900400D5D
:1081B000490D0590401A0290402872DA18030121F7
:1081C000000B09050843019004980092002805D08F
:1081D000019952420020884100920190029840216A
:1081E0000A1A0199009800F083F905460C466B467F
:1081F00007CB00F09EF9C0197141039A0E0D0023C0
:10820000D71756401A467A40164344D0049A002A9B
:108210002DD0029A012A039A15DC1205C01A914149
:1082200001263605001C7141D20F059ED20700932E
:10823000019202962A46234600F09BF907B0F0BD52
:1082400038463146FAE71605224A0F46B218C01AD8
:10825000B74101210905001C4F4100187F4111461B
:1082600018187941E20F10436D19644113E0E207D9
:108270006D0815436408C2071443039A01261205CA
:10828000C01A91413605001C7141CE0740083043A9
:108290004908C01851412A46234600F05DF9CDE750
:1082A000FFE7049801224000C117121A00238B41F6
:1082B00004983146C417381AA141EEE730B40124BE
:1082C000E407634030BC55E730B40124E407614063
:1082D00030BC4FE70000E0FFF0B51FB488B00B9949
:1082E0000998002448400999C00F4900490809919C
:1082F000C0070B990090490049080B91099908980B
:10830000A64608431CD00B990A98084318D0099830
:1083100001244000420D4800410D09982405000346
:10832000000B204309900B980003000B20430B9097
:1083300050181C494018002201901446104605E0D0
:10834000002001460DB0F0BD032801DA034600E02D
:1083500003239C46C11A0AAE0AE05F0008ADED5B3C
:108360004F00F75B7D430027AA187C41491C5B1E28
:108370006145F2DD410004AB5A522104120C0A435C
:10838000240C401C0828DFDB0198029000997046FD
:1083900001910090059B049A0799069800F0E9F86E
:1083A000D0E700000DFCFFFFF0B50C465C4085B047
:1083B000E40FE40703944C00002664085900944637
:1083C000490802460296224321D062460A431ED043
:1083D0006200570D4A000E032303550D0124024687
:1083E0002C492405781B1B0B360B401823432643CE
:1083F000614600901C46501AB44103D30098401CBB
:10840000009002E0921800985B41002803DA0020F7
:10841000014605B0F0BD002001210905074686464A
:1084200011E064461D46141BB54106D36546521B38
:10843000B341744607430C43A646CD07400849089C
:10844000284392185B4105460D43EAD11046184374
:1084500013D06046194650407140084306D060462C
:10846000101AB34106D20122002306E000220123A4
:10847000DB0702E00122D243531000987446010545
:10848000381C6141029C039D0019694100F064F8A9
:10849000BFE70000FD0300000EB505490291002171
:1084A00000910A460B46019100F063F803B000BD4D
:1084B000330400004A0009030123090B1B0519437B
:1084C000094B10B5520D9A4201DA002010BD064B3F
:1084D00034339A4203DC9A1A00F01AF810BD0349AB
:1084E0005118884010BD0000FF030000CDFBFFFFC6
:1084F00010B5202A04DB0146203A9140002010BD2F
:10850000914020239C1A0346E3401943904010BD3C
:1085100010B5202A04DB0846203AD040002110BDC7
:108520000B46D340D0402024A21A9140084319465C
:1085300010BD10B5202A06DBCB170846203A1041A3
:10854000C1170B4306E00B461341D0402024A21A6A
:1085500091400843194610BD10B5002B08DA0024DD
:10856000401C614192185B411A4301D14008400010
:1085700010BDF0B51FB482B005460C0003D008460C
:1085800000F040F902E000F03DF920300246009092
:1085900021462846FFF7ACFF049B059A04460F4688
:1085A00018431143084314D0184610431BD00098B9
:1085B00040210A1A18460599FFF7AAFF05460E46FC
:1085C000009A05990498FFF793FF084305D001200E
:1085D00004E02046394607B0F0BD0020C11705432E
:1085E0000E432C43374300990E986305401A7905D2
:1085F000E40A00220C43FD0A0A3002D5002001469D
:10860000E9E70105101969410C9C0D9D00196941AC
:10861000FFF7A2FFDFE70000064C0125064E05E04C
:10862000E36807CC2B430C3C98471034B442F7D393
:10863000FFF74AFDD4980100F49801008307FF2258
:10864000DB0E9A408907090E994000280BDA0007D3
:10865000000F0838830808489B001818C369934323
:108660000B43C3617047830804489B001B181868BC
:10867000904308431860704700ED00E000E400E01C
:1086800010B506490020086048608860C86003494A
:1086900040390860486001F037F810BD40110140D2
:1086A000FEB50020C043124D0290686901906846F3
:1086B0002E6900F0F7FB074600F0F8FC0446002F97
:1086C00008D002AA0199009800F00CFC029800F072
:1086D00037FD06E0029800F033FD002801D1002CA0
:1086E00002D0304600F04AFB00206871FEBD000059
:1086F0003020002004490122087850400870496861
:10870000002900D0084770471C20002010B50748FA
:108710004068002807D08047002803D00022114677
:1087200000F0CAF910BD00F05DFC10BD542000201F
:1087300010B500F097FC002805D00E490C484860A1
:10874000C8130D4988610D48018CC9B201290ED1A9
:10875000818C09070BD1018D0906090F042906D167
:10876000808D0006000F02D105490120886010BDF0
:10877000DFFF07C000050040006C0040C00F00F0A4
:10878000000600407CB51B4CA0681B4E002500284D
:1087900018D0A56019488069C1B2194800F0A9F93C
:1087A000002805D001216A4611700190684607E053
:1087B00013488168C068401A012803D168460570D3
:1087C000B1688847E069002803D0E561032000F024
:1087D00003FE606A00280BD065620849803908688A
:1087E000086002216A4611700190B16868468847A6
:1087F0007CBD000000210040242000200025004016
:10880000DC2300202021020C01D010211046020A96
:1088100001D010460839020901D01046091F82080C
:1088200001D01046891E420801D0881E7047081AE0
:10883000704730B47446641E2578641CAB4200D285
:108840001D46635D5B00E31830BC184702E008C8B2
:10885000121F08C1002AFAD170477047002001E0BA
:1088600001C1121F002AFBD17047000038B50D4C22
:108870006078022802D00C490120886069460B48C4
:1088800000F026F9002802D000F016F838BD08489C
:10889000802181606A46074B1278DA610222627099
:1088A000416038BD2420002000200040EC2300203F
:1088B00000230040002500401CB506490120C86087
:1088C0000549487003206A461070896868468847E1
:1088D0001CBD00000020004024200020044900208E
:1088E000487004490122CA604A6003490860704721
:1088F000242000200020004000250040F7B582B071
:1089000000260546167000781446002805D0284633
:10891000039900F011FD060008D1A87800281ED0A8
:108920002078039F001D1F2802D90C2005B0F0BD40
:10893000684679DF0028F9D121780322481C20708D
:108940007A5421781922481C20707A542078C11951
:108950006846008800F018FF217840182070E878F9
:108960000223002810D02078039A411C2170135450
:1089700020780399471C012227700A542078EA784E
:10898000471C039927700A546868002815D00021F5
:10899000415620788C460246C01C03991F28C4D833
:1089A000501C20708B5422780A23501C20708B544A
:1089B00020786246431C23700A542889002809D075
:1089C00028460094062202210830039B00F01EFF77
:1089D0000600ABD1288A002809D028460094072237
:1089E00003211030039B00F011FF06009ED1288B5D
:1089F000002809D028460094152214211830039B22
:108A000000F004FF060091D1286A002805D0224614
:108A1000039900F005FA060088D1686A002805D09D
:108A20002246039900F04AFC060084D12C20405DC8
:108A3000002806D022462846039900F08FFD060044
:108A4000C7D1304672E7000070B51948AB210170FC
:108A500001460E31841E4860E2880A80154EA188C6
:108A60003180314668392269CA6608673021701A38
:108A7000FFF775FB30463038002505706178C1700E
:108A800086622178203001732946203800F030F9C1
:108A9000304618214838FFF762FB3046032148383A
:108AA000017045607D21057289010182458270BD9A
:108AB00002200020D0230020BFF34F8F034902483B
:108AC000C860BFF34F8FFEE70400FA0500ED00E039
:108AD0008268C36893420AD0826883881A40036818
:108AE0009A5C0A708168491C8160002070470520EB
:108AF00070478268C3689B1A8288934208D8C3680B
:108B000013400268D154C168491CC16000207047FD
:108B10000420704770B5114CA568002D06D0002ABE
:108B200006D0002804D00023247809E0082070BD76
:108B3000072070BD24265E43AE5D002E04D05B1C72
:108B4000A342F7DB042070BD242401265C432E558C
:108B500064196170A2610360002070BD30200020A4
:108B6000FFB59807002481B01E4615460F46002821
:108B70000BD1002E09D000F0CFFC22490A98886161
:108B80000F70324600208E6008E0072005B0F0BD6F
:108B900024234343D4549B181C75401CB842F7DB74
:108BA00024204743BB19032048700F461846CB606A
:108BB00019461830002218232E465E43D3005B1856
:108BC0001C705C709D7058603018521C032AF5DBD5
:108BD0000020C0433861BC70FC7001240A482405A1
:108BE000046003211420FFF729FD08480460084CA5
:108BF0000198A06003211120FFF720FD60687861D3
:108C00000020C3E73020002080E200E000E100E027
:108C100000150140FEB504461D48174682680D4602
:108C2000002A0CD001788C4201D2052D01D20720F8
:108C3000FEBD214624235943535C012B01D008205B
:108C4000FEBD8818407801281DD0002600F0A2FD46
:108C5000C0000F490190C9684018694600F0C4FD82
:108C6000002812D0012101700A4944604968083087
:108C7000E2C007490198C96841180098487000F09F
:108C8000D1FC0020FEBD2E46E0E70420FEBD000022
:108C90003020002000150140F8B5144D0446A868A6
:108CA000002809D029788C4201D30720F8BD24215F
:108CB0006143405C012801D00820F8BD00F06AFD46
:108CC000C600E8686946301800F08EFD00280AD01A
:108CD000022101704460E86831180098487000F083
:108CE000A1FC0020F8BD0420F8BD000030200020C9
:108CF00070B50C4692B000216A46117007251171BB
:108D0000002809D0C17849070CD502A9FFF7F6FD64
:108D1000002808D102AE00E00026002C0ED0E0783A
:108D2000002802D0284612B070BD01AA0AA9204628
:108D3000FFF7E4FD0028F6D10AAA00E00022684609
:108D400003790178304672DFEDE7000070B5054623
:108D500009480C464260152032DF00280BD1294615
:108D6000152033DF002806D115202EDF002802D180
:108D7000214603204CDF70BD1C200020F8B522489E
:108D800001694A1C3DD024225143826889184E68EB
:108D90001E494C6847690079E11B0D022D0AED1C44
:108DA000002814D101201A4A00045060184A403AA1
:108DB00050601849400008601749086017490120B1
:108DC00008602F20FFF786F90F4901200871B5428E
:108DD00000D23546E81900020C49000A403108600B
:108DE0000A494968001B091B0902090A0002000A16
:108DF000C91C814204D90120064940048039086019
:108E0000F8BD00F089FBF8BD3020002000150140BE
:108E10004013014080E200E000E100E0001001406A
:108E2000F8B50D4611780646881D14461F2801D94D
:108E30000C20F8BD33880720062BFAD31927FF0131
:108E4000BB4202D9164A9342F3D17288062AF0D364
:108E5000BA4202D9124FBA42EBD1114FBB4203D0F2
:108E6000BA4201D09342E4D8481C052220706A54CB
:108E700020781222411C21702A5420784119308810
:108E800000F082FC21784018C0B22070411970882F
:108E900000F07AFC2178401820700020F8BD000016
:108EA000FFFF000010B50E4900238A78CC78A2425B
:108EB00012D0521CD2B28A70022A00D18B708A78EA
:108EC000074B92001C339A58026048691018000240
:108ED000000A4861012010BD0360002010BD0000A1
:108EE00030200020F7B5144C0025A76823691EE048
:108EF00024215943C9194E68864202D9301A486064
:108F000017E0801B751900264E600E750E699C4691
:108F10000B6AB646002E0AD0019E76193602360A32
:108F20008E607646CE6016680E6261461160591CEE
:108F3000DED12361FEBD00003020002070B5144852
:108F400000240461134DE868FFF7A6FE0120124AD1
:108F50000104D1601149AC60086011480068FFF756
:108F60009BFA02460B4600200E49FFF71DFA00222D
:108F70000D4BFFF7B1F90D4A0D4BFFF79FF9FFF7C6
:108F800099FAA91C087000210A48FFF7B1FE70BDCC
:108F900000650040002000200005005040A0004077
:108FA00040A500400000F03FC087D1408195438B31
:108FB0006CE7FF3FA023002010B500210F2000F038
:108FC000F1F90121102000F0EDF90121032000F05A
:108FD000E9F903490820C860102000F0F5F910BD38
:108FE00000050050F8B51E4C2078002837D02069C5
:108FF000002807D00026E068002805D00025002EB4
:1090000004D013E00126F6E70125F8E7684651DFB2
:10901000052806D0002806D000221146FFF74CFD97
:1090200004E0012602E0216900988847002D12D152
:10903000608869460880A06861DF052806D000289E
:1090400006D000221146FFF737FD04E0012502E0BB
:10905000E168A0688847002ED8D0002DCFD0F8BD99
:10906000542000201048018CC9B2012917D1818CED
:10907000090714D1018D09060A0F03D1828D12064A
:10908000120F0ED0090F012903D1828D1206120F83
:1090900007D0032903D1808D0006000F01D00020E6
:1090A0007047012070470000C00F00F0F8B523485A
:1090B00001690091457833E02048E900C0680E1846
:1090C00034782AE0182060437168641C0818B1786D
:1090D000E4B2A14200D100240178022902D0032980
:1090E0001BD113E0154A40682421926841438F1830
:1090F000397D002911D000F0CFFA002038750CE03E
:1091000024277843C0180275006A03E00B49002247
:109110008B680869471CF3D108617078A042D1D1EF
:1091200028466D1EEDB20028C6D10448016900989A
:10913000814201D00120F8BD0020F8BD3020002080
:10914000F8B50446384800270169009146785CE08C
:109150003548F100C2688D1851E0601C07D0324AD2
:1091600024209268604321468018046A24E028780D
:10917000182141436A68401CC0B252182870A9786F
:10918000884200D12F70284B516824209B684843A7
:10919000C0181378012B34D1037D002B31D1936893
:1091A0008360D368C360136903615269C2611E4A58
:1091B0005279002A00D087601B4B82685B69964613
:1091C0009C46D31A1A02194B120A9A4202D2C36859
:1091D000D21808E0724663469A1A1202C368120A4D
:1091E000934202D99A1A426000E0476087600122E8
:1091F000C7600275921E0262084600F01BFA601CEE
:10920000ABD1287869788842A7D13046761EF6B26D
:1092100000289DD1044801690098814201D00120B5
:10922000F8BD0020F8BD000030200020FFFF7F00C7
:109230001CB500F0EFF900241B4B06220521204647
:109240000094FFF78DFC002803D000221146FFF7A1
:1092500033FCFFF7B1FE16491448086100F060F8CE
:109260001149002348224839082000F0BBF90028A2
:1092700003D000221146FFF71FFC0094012069462D
:1092800001940870684660DF0A4A01210320FFF755
:109290005DFD00F0E5F8002077DFFFF7D5FB06481D
:1092A00073DF48DFFDE70000B0200020010F010060
:1092B00000650040819401008823002070B50546B8
:1092C00000790E46801C1446C0B21178821C8A18A0
:1092D0001F2A01D90C2070BD0A46491C2170401C70
:1092E000B0542078FF22411C21703254207881191B
:1092F000288800F049FA21784018C0B22070AA8866
:10930000002A09D0A968002908D08019FEF70EFFAD
:109310002078297940182070002070BD072070BD8A
:1093200010B5034A01210348FFF7F4FB10BD00000C
:109330003D8F01000C200020F8B514780746A01CD2
:1093400015460E461F2803D87878801C1F2801D99F
:109350000C20F8BD1D20001B80B26946864608809F
:109360003019801C7DDF0028F3D13878022805D120
:1093700068460088704501D8092107E078780821FF
:10938000002801D0704501D968460088421C32553A
:10939000641CE2B2B1542978801C0818287000209F
:1093A000F8BD0000002904D00121814004488161FA
:1093B0007047044A00218000801801607047000057
:1093C00000050050000700500121814001488160E4
:1093D000704700000005005010B51D4A1D490300EC
:1093E000FFF727FA05040B312027120048780128DF
:1093F0001FD0022808D1032005E04878002804D0B7
:10940000032801D10220487010BD134B04201860BE
:10941000124B012018609368D2689A42F3D0FFF78C
:1094200025FA10BD4878012806D0022804D0032868
:10943000F7D1FFF753FA10BD9068D1688142EED1A1
:10944000FFF73AFA10BD48780128E8D010BD0000B7
:10945000EC230020242000200025004000200040B4
:109460000448016801221143016003490161034975
:109470004161704700F501400061004008A00040D4
:10948000F8B5002805D0012047DF0320FFF79CFF37
:10949000F8BD1B4CA068401CA060002047DF0125E0
:1094A00018490820C860A01C0078174E174FAB2839
:1094B00016D01749A068884202D11020FFF784FF18
:1094C0002D21A06809018842E2D13E61114EF5606C
:1094D00001210022C903E068FFF79CFB3560F8BD5D
:1094E0003E611020FFF770FF0A4EF5600121002257
:1094F000C903E068FFF78EFB35600020A060F8BD6F
:109500000020002000050050010F01000065004010
:10951000CF02000000A0004070B501240B49600498
:1095200008600B4940108860094940398860094D3E
:109530006C602F20FEF7CEFDAC60074D00242F207D
:109540006C61FEF7C7FD2C7170BD000080E100E08A
:10955000401301400010014030200020F7B582B0D8
:1095600002981446806A0F46002833D002980025DE
:109570002030009028E00298816A0C2068430E1881
:10958000217830794A1C2270C01C78542078162229
:10959000411C21703A542078C119308800F0F4F849
:1095A00021784018C0B22070B288002A09D0B16872
:1095B00000290FD0C019FEF7B9FD20783179401885
:1095C00020706D1C0098EDB2007BA842D3D800201B
:1095D00005B0F0BD0720FBE710B508461146C046B0
:1095E000C04610BD70B5002901D08C0701D00720FE
:1095F00070BD064C0125A16062800549636010DFE3
:109600000028F5D1257016202EDF70BD54200020D3
:10961000D995010002480121416000218160704715
:1096200000A50040012002490005086070470000C5
:1096300000E200E0F0B5174F2421BC6841430D194A
:1096400039694A1C09D024224A4316196B6872688A
:10965000934204D8D21A726029623861F0BD0A467A
:1096600002E00A46396A9B1B4E1C0BD024264E434F
:1096700037197E689E42F4D324264E433619776804
:10968000FF1A77606B60296224214A43111908622E
:10969000F0BD00003020002070B5194C2269A5688B
:1096A0001346114606E0814207D00A46242671433C
:1096B0004919096A4E1CF6D170BD002EFCD08A42B1
:1096C0000CD1242043435819006A2061401C05D165
:1096D0000C4B01209860002363616071242041439A
:1096E0004819242341685A43006A52191062421CE7
:1096F000E2D024225043401942685118416070BDA5
:109700003020002000100140F8B51D4C2569681C70
:1097100035D01C48002640686169401A07023F0A9C
:1097200019E024204543A0682A185068B84214D88C
:10973000A3693F1A8619156A002B09D0D16990696F
:109740009847002807D000221146FFF7B5F902E03C
:109750009169D0698847681CE3D1A178E07881429B
:1097600006D1401CC0B2E070022801D10020E07098
:1097700003490006800D1C310E50FFF753FFF8BD62
:1097800030200020001501400870000A48700220B7
:109790007047000012494868C005C00D19D0103844
:1097A00040B2002807DA0207120F083A9208920026
:1097B0005118C96904E081080A4A890089180968B2
:1097C0008007C00EC1400806800F012803D003287F
:1097D00003D002207047002070470120704700002E
:1097E00000ED00E000E400E042788378521C9342F0
:1097F00000D100220378934201D1002070470A6013
:10980000416840781822504308187047F8B515464B
:10981000069C1E4607460222009400F00AF8002823
:1098200006D13346102229463846009400F001F84C
:10983000F8BDFFB583B0074600200C9C864626780D
:1098400005463AE07868A90041180A88684682808F
:109850004988C1800022694601A865DF002810D12F
:10986000684601780598814226D17046002801D0CB
:10987000002200E002222078891841181F2902D90D
:109880000C2007B0F0BD7146002908D1401CC0B2C1
:10989000411C069B049A21701A54012086462178A7
:1098A00006980A18694601A865DF0028E9D16946CB
:1098B00020780978401820706D1C3888A842C1DCD7
:1098C0007046002804D020780699801B401E8855D9
:1098D0000020D6E7F4980100002000206800000076
:1098E0004C8801005C99010068200020980B000062
:1098F0005C8801000104000009180100000000005C
:109900000000000000000000000000000024F4003F
:109910000000000000000000010000000000000046
:109920000000000000000000000000000000000037
:109930000000000000000000000000000000000027
:109940000000000000000000000000000000000017
:0C9950000000000000000000000000000B
:04000005000180C1B5
:00000001FF
